{
  "contractName": "demo",
  "abi": [
    {
      "inputs": [
        {
          "internalType": "uint256",
          "name": "total",
          "type": "uint256"
        },
        {
          "internalType": "string",
          "name": "name",
          "type": "string"
        },
        {
          "internalType": "string",
          "name": "symbol",
          "type": "string"
        }
      ],
      "stateMutability": "nonpayable",
      "type": "constructor"
    },
    {
      "anonymous": false,
      "inputs": [
        {
          "indexed": true,
          "internalType": "address",
          "name": "tokenOwner",
          "type": "address"
        },
        {
          "indexed": true,
          "internalType": "address",
          "name": "spender",
          "type": "address"
        },
        {
          "indexed": false,
          "internalType": "uint256",
          "name": "tokens",
          "type": "uint256"
        }
      ],
      "name": "Approval",
      "type": "event"
    },
    {
      "anonymous": false,
      "inputs": [
        {
          "indexed": true,
          "internalType": "address",
          "name": "from",
          "type": "address"
        },
        {
          "indexed": true,
          "internalType": "address",
          "name": "to",
          "type": "address"
        },
        {
          "indexed": false,
          "internalType": "uint256",
          "name": "tokens",
          "type": "uint256"
        }
      ],
      "name": "Transfer",
      "type": "event"
    },
    {
      "inputs": [],
      "name": "totalSupply",
      "outputs": [
        {
          "internalType": "uint256",
          "name": "",
          "type": "uint256"
        }
      ],
      "stateMutability": "view",
      "type": "function"
    },
    {
      "inputs": [
        {
          "internalType": "address",
          "name": "tokenOwner",
          "type": "address"
        }
      ],
      "name": "balanceOf",
      "outputs": [
        {
          "internalType": "uint256",
          "name": "",
          "type": "uint256"
        }
      ],
      "stateMutability": "view",
      "type": "function"
    },
    {
      "inputs": [],
      "name": "getName",
      "outputs": [
        {
          "internalType": "string",
          "name": "",
          "type": "string"
        }
      ],
      "stateMutability": "view",
      "type": "function"
    },
    {
      "inputs": [],
      "name": "getSymbol",
      "outputs": [
        {
          "internalType": "string",
          "name": "",
          "type": "string"
        }
      ],
      "stateMutability": "view",
      "type": "function"
    },
    {
      "inputs": [],
      "name": "getAddress",
      "outputs": [
        {
          "internalType": "address",
          "name": "",
          "type": "address"
        }
      ],
      "stateMutability": "view",
      "type": "function"
    },
    {
      "inputs": [
        {
          "internalType": "address",
          "name": "receiver",
          "type": "address"
        },
        {
          "internalType": "uint256",
          "name": "numTokens",
          "type": "uint256"
        }
      ],
      "name": "transfer",
      "outputs": [
        {
          "internalType": "bool",
          "name": "",
          "type": "bool"
        }
      ],
      "stateMutability": "nonpayable",
      "type": "function"
    },
    {
      "inputs": [
        {
          "internalType": "address",
          "name": "delegate",
          "type": "address"
        },
        {
          "internalType": "uint256",
          "name": "numTokens",
          "type": "uint256"
        }
      ],
      "name": "approve",
      "outputs": [
        {
          "internalType": "bool",
          "name": "",
          "type": "bool"
        }
      ],
      "stateMutability": "nonpayable",
      "type": "function"
    },
    {
      "inputs": [
        {
          "internalType": "address",
          "name": "owner",
          "type": "address"
        },
        {
          "internalType": "address",
          "name": "delegate",
          "type": "address"
        }
      ],
      "name": "allowance",
      "outputs": [
        {
          "internalType": "uint256",
          "name": "",
          "type": "uint256"
        }
      ],
      "stateMutability": "view",
      "type": "function"
    },
    {
      "inputs": [
        {
          "internalType": "address",
          "name": "owner",
          "type": "address"
        },
        {
          "internalType": "address",
          "name": "buyer",
          "type": "address"
        },
        {
          "internalType": "uint256",
          "name": "numTokens",
          "type": "uint256"
        }
      ],
      "name": "transferFrom",
      "outputs": [
        {
          "internalType": "bool",
          "name": "",
          "type": "bool"
        }
      ],
      "stateMutability": "nonpayable",
      "type": "function"
    },
    {
      "inputs": [],
      "name": "returnAddress",
      "outputs": [
        {
          "internalType": "string",
          "name": "",
          "type": "string"
        }
      ],
      "stateMutability": "view",
      "type": "function"
    }
  ],
  "bytecode": "0x60806040523480156200001157600080fd5b506040516200176838038062001768833981810160405281019062000037919062000346565b82600281905550816003908051906020019062000056929190620000be565b5080600490805190602001906200006f929190620000be565b506002546000803373ffffffffffffffffffffffffffffffffffffffff1673ffffffffffffffffffffffffffffffffffffffff1681526020019081526020016000208190555050505062000445565b828054620000cc906200040f565b90600052602060002090601f016020900481019282620000f057600085556200013c565b82601f106200010b57805160ff19168380011785556200013c565b828001600101855582156200013c579182015b828111156200013b5782518255916020019190600101906200011e565b5b5090506200014b91906200014f565b5090565b5b808211156200016a57600081600090555060010162000150565b5090565b6000604051905090565b600080fd5b600080fd5b6000819050919050565b620001978162000182565b8114620001a357600080fd5b50565b600081519050620001b7816200018c565b92915050565b600080fd5b600080fd5b6000601f19601f8301169050919050565b7f4e487b7100000000000000000000000000000000000000000000000000000000600052604160045260246000fd5b6200021282620001c7565b810181811067ffffffffffffffff82111715620002345762000233620001d8565b5b80604052505050565b6000620002496200016e565b905062000257828262000207565b919050565b600067ffffffffffffffff8211156200027a5762000279620001d8565b5b6200028582620001c7565b9050602081019050919050565b60005b83811015620002b257808201518184015260208101905062000295565b83811115620002c2576000848401525b50505050565b6000620002df620002d9846200025c565b6200023d565b905082815260208101848484011115620002fe57620002fd620001c2565b5b6200030b84828562000292565b509392505050565b600082601f8301126200032b576200032a620001bd565b5b81516200033d848260208601620002c8565b91505092915050565b60008060006060848603121562000362576200036162000178565b5b60006200037286828701620001a6565b935050602084015167ffffffffffffffff8111156200039657620003956200017d565b5b620003a48682870162000313565b925050604084015167ffffffffffffffff811115620003c857620003c76200017d565b5b620003d68682870162000313565b9150509250925092565b7f4e487b7100000000000000000000000000000000000000000000000000000000600052602260045260246000fd5b600060028204905060018216806200042857607f821691505b602082108114156200043f576200043e620003e0565b5b50919050565b61131380620004556000396000f3fe608060405234801561001057600080fd5b506004361061009e5760003560e01c806338cc48311161006657806338cc48311461015d57806370a082311461017b578063943640c3146101ab578063a9059cbb146101c9578063dd62ed3e146101f95761009e565b8063095ea7b3146100a357806315070401146100d357806317d7de7c146100f157806318160ddd1461010f57806323b872dd1461012d575b600080fd5b6100bd60048036038101906100b89190610bbb565b610229565b6040516100ca9190610c16565b60405180910390f35b6100db61031b565b6040516100e89190610cca565b60405180910390f35b6100f96103ad565b6040516101069190610cca565b60405180910390f35b61011761043f565b6040516101249190610cfb565b60405180910390f35b61014760048036038101906101429190610d16565b610449565b6040516101549190610c16565b60405180910390f35b6101656106cc565b6040516101729190610d78565b60405180910390f35b61019560048036038101906101909190610d93565b6106d4565b6040516101a29190610cfb565b60405180910390f35b6101b361071c565b6040516101c09190610cca565b60405180910390f35b6101e360048036038101906101de9190610bbb565b61072c565b6040516101f09190610c16565b60405180910390f35b610213600480360381019061020e9190610dc0565b610892565b6040516102209190610cfb565b60405180910390f35b600081600160003373ffffffffffffffffffffffffffffffffffffffff1673ffffffffffffffffffffffffffffffffffffffff16815260200190815260200160002060008573ffffffffffffffffffffffffffffffffffffffff1673ffffffffffffffffffffffffffffffffffffffff168152602001908152602001600020819055508273ffffffffffffffffffffffffffffffffffffffff163373ffffffffffffffffffffffffffffffffffffffff167f8c5be1e5ebec7d5bd14f71427d1e84f3dd0314c0f7b2291e5b200ac8c7c3b925846040516103099190610cfb565b60405180910390a36001905092915050565b60606004805461032a90610e2f565b80601f016020809104026020016040519081016040528092919081815260200182805461035690610e2f565b80156103a35780601f10610378576101008083540402835291602001916103a3565b820191906000526020600020905b81548152906001019060200180831161038657829003601f168201915b5050505050905090565b6060600380546103bc90610e2f565b80601f01602080910402602001604051908101604052809291908181526020018280546103e890610e2f565b80156104355780601f1061040a57610100808354040283529160200191610435565b820191906000526020600020905b81548152906001019060200180831161041857829003601f168201915b5050505050905090565b6000600254905090565b60008060008573ffffffffffffffffffffffffffffffffffffffff1673ffffffffffffffffffffffffffffffffffffffff1681526020019081526020016000205482111561049657600080fd5b600160008573ffffffffffffffffffffffffffffffffffffffff1673ffffffffffffffffffffffffffffffffffffffff16815260200190815260200160002060003373ffffffffffffffffffffffffffffffffffffffff1673ffffffffffffffffffffffffffffffffffffffff1681526020019081526020016000205482111561051f57600080fd5b816000808673ffffffffffffffffffffffffffffffffffffffff1673ffffffffffffffffffffffffffffffffffffffff168152602001908152602001600020600082825461056d9190610e90565b9250508190555081600160008673ffffffffffffffffffffffffffffffffffffffff1673ffffffffffffffffffffffffffffffffffffffff16815260200190815260200160002060003373ffffffffffffffffffffffffffffffffffffffff1673ffffffffffffffffffffffffffffffffffffffff16815260200190815260200160002060008282546106009190610e90565b92505081905550816000808573ffffffffffffffffffffffffffffffffffffffff1673ffffffffffffffffffffffffffffffffffffffff16815260200190815260200160002060008282546106559190610ec4565b925050819055508273ffffffffffffffffffffffffffffffffffffffff168473ffffffffffffffffffffffffffffffffffffffff167fddf252ad1be2c89b69c2b068fc378daa952ba7f163c4a11628f55a4df523b3ef846040516106b99190610cfb565b60405180910390a3600190509392505050565b600033905090565b60008060008373ffffffffffffffffffffffffffffffffffffffff1673ffffffffffffffffffffffffffffffffffffffff168152602001908152602001600020549050919050565b606061072733610919565b905090565b60008060003373ffffffffffffffffffffffffffffffffffffffff1673ffffffffffffffffffffffffffffffffffffffff1681526020019081526020016000205482111561077957600080fd5b816000803373ffffffffffffffffffffffffffffffffffffffff1673ffffffffffffffffffffffffffffffffffffffff16815260200190815260200160002060008282546107c79190610e90565b92505081905550816000808573ffffffffffffffffffffffffffffffffffffffff1673ffffffffffffffffffffffffffffffffffffffff168152602001908152602001600020600082825461081c9190610ec4565b925050819055508273ffffffffffffffffffffffffffffffffffffffff163373ffffffffffffffffffffffffffffffffffffffff167fddf252ad1be2c89b69c2b068fc378daa952ba7f163c4a11628f55a4df523b3ef846040516108809190610cfb565b60405180910390a36001905092915050565b6000600160008473ffffffffffffffffffffffffffffffffffffffff1673ffffffffffffffffffffffffffffffffffffffff16815260200190815260200160002060008373ffffffffffffffffffffffffffffffffffffffff1673ffffffffffffffffffffffffffffffffffffffff16815260200190815260200160002054905092915050565b60606000602867ffffffffffffffff81111561093857610937610f1a565b5b6040519080825280601f01601f19166020018201604052801561096a5781602001600182028036833780820191505090505b50905060005b6014811015610ad25760008160136109889190610e90565b60086109949190610f49565b60026109a091906110d6565b8573ffffffffffffffffffffffffffffffffffffffff166109c19190611150565b60f81b9050600060108260f81c6109d8919061118e565b60f81b905060008160f81c60106109ef91906111bf565b8360f81c6109fd91906111fa565b60f81b9050610a0b82610adc565b85856002610a199190610f49565b81518110610a2a57610a2961122e565b5b60200101907effffffffffffffffffffffffffffffffffffffffffffffffffffffffffffff1916908160001a905350610a6281610adc565b856001866002610a729190610f49565b610a7c9190610ec4565b81518110610a8d57610a8c61122e565b5b60200101907effffffffffffffffffffffffffffffffffffffffffffffffffffffffffffff1916908160001a9053505050508080610aca9061125d565b915050610970565b5080915050919050565b6000600a8260f81c60ff161015610b075760308260f81c610afd91906112a6565b60f81b9050610b1d565b60578260f81c610b1791906112a6565b60f81b90505b919050565b600080fd5b600073ffffffffffffffffffffffffffffffffffffffff82169050919050565b6000610b5282610b27565b9050919050565b610b6281610b47565b8114610b6d57600080fd5b50565b600081359050610b7f81610b59565b92915050565b6000819050919050565b610b9881610b85565b8114610ba357600080fd5b50565b600081359050610bb581610b8f565b92915050565b60008060408385031215610bd257610bd1610b22565b5b6000610be085828601610b70565b9250506020610bf185828601610ba6565b9150509250929050565b60008115159050919050565b610c1081610bfb565b82525050565b6000602082019050610c2b6000830184610c07565b92915050565b600081519050919050565b600082825260208201905092915050565b60005b83811015610c6b578082015181840152602081019050610c50565b83811115610c7a576000848401525b50505050565b6000601f19601f8301169050919050565b6000610c9c82610c31565b610ca68185610c3c565b9350610cb6818560208601610c4d565b610cbf81610c80565b840191505092915050565b60006020820190508181036000830152610ce48184610c91565b905092915050565b610cf581610b85565b82525050565b6000602082019050610d106000830184610cec565b92915050565b600080600060608486031215610d2f57610d2e610b22565b5b6000610d3d86828701610b70565b9350506020610d4e86828701610b70565b9250506040610d5f86828701610ba6565b9150509250925092565b610d7281610b47565b82525050565b6000602082019050610d8d6000830184610d69565b92915050565b600060208284031215610da957610da8610b22565b5b6000610db784828501610b70565b91505092915050565b60008060408385031215610dd757610dd6610b22565b5b6000610de585828601610b70565b9250506020610df685828601610b70565b9150509250929050565b7f4e487b7100000000000000000000000000000000000000000000000000000000600052602260045260246000fd5b60006002820490506001821680610e4757607f821691505b60208210811415610e5b57610e5a610e00565b5b50919050565b7f4e487b7100000000000000000000000000000000000000000000000000000000600052601160045260246000fd5b6000610e9b82610b85565b9150610ea683610b85565b925082821015610eb957610eb8610e61565b5b828203905092915050565b6000610ecf82610b85565b9150610eda83610b85565b9250827fffffffffffffffffffffffffffffffffffffffffffffffffffffffffffffffff03821115610f0f57610f0e610e61565b5b828201905092915050565b7f4e487b7100000000000000000000000000000000000000000000000000000000600052604160045260246000fd5b6000610f5482610b85565b9150610f5f83610b85565b9250817fffffffffffffffffffffffffffffffffffffffffffffffffffffffffffffffff0483118215151615610f9857610f97610e61565b5b828202905092915050565b60008160011c9050919050565b6000808291508390505b6001851115610ffa57808604811115610fd657610fd5610e61565b5b6001851615610fe55780820291505b8081029050610ff385610fa3565b9450610fba565b94509492505050565b60008261101357600190506110cf565b8161102157600090506110cf565b8160018114611037576002811461104157611070565b60019150506110cf565b60ff84111561105357611052610e61565b5b8360020a91508482111561106a57611069610e61565b5b506110cf565b5060208310610133831016604e8410600b84101617156110a55782820a9050838111156110a05761109f610e61565b5b6110cf565b6110b28484846001610fb0565b925090508184048111156110c9576110c8610e61565b5b81810290505b9392505050565b60006110e182610b85565b91506110ec83610b85565b92506111197fffffffffffffffffffffffffffffffffffffffffffffffffffffffffffffffff8484611003565b905092915050565b7f4e487b7100000000000000000000000000000000000000000000000000000000600052601260045260246000fd5b600061115b82610b85565b915061116683610b85565b92508261117657611175611121565b5b828204905092915050565b600060ff82169050919050565b600061119982611181565b91506111a483611181565b9250826111b4576111b3611121565b5b828204905092915050565b60006111ca82611181565b91506111d583611181565b92508160ff04831182151516156111ef576111ee610e61565b5b828202905092915050565b600061120582611181565b915061121083611181565b92508282101561122357611222610e61565b5b828203905092915050565b7f4e487b7100000000000000000000000000000000000000000000000000000000600052603260045260246000fd5b600061126882610b85565b91507fffffffffffffffffffffffffffffffffffffffffffffffffffffffffffffffff82141561129b5761129a610e61565b5b600182019050919050565b60006112b182611181565b91506112bc83611181565b92508260ff038211156112d2576112d1610e61565b5b82820190509291505056fea2646970667358221220d5aa728e3e45b78dc3ef87a31cb180eefdfe4aa08363f31d1c1ebd1e10cfb17a64736f6c634300080b0033",
  "immutableReferences": {},
  "source": "// SPDX-License-Identifier: GPL-3.0\npragma solidity >=0.7.0 <0.9.0;\n\ncontract demo {\n\n    event Transfer(address indexed from, address indexed to, uint tokens);\n    event Approval(address indexed tokenOwner, address indexed spender, uint tokens);\n\n    mapping(address => uint256) balances;\n\n    mapping(address => mapping (address => uint256)) allowed;\n\n    uint256 totalSupply_;\n    string name_;\n    string symbol_;\n    uint256 constant decimals_ = 18;\n\n\n    constructor(uint256 total,string memory name, string memory symbol) {\n      totalSupply_ = total;\n      name_ = name;\n      symbol_ = symbol;\n      balances[msg.sender] = totalSupply_;\n    }\n\n    function totalSupply() public view returns (uint256) {\n      return totalSupply_;\n    }\n\n    function balanceOf(address tokenOwner) public view returns (uint) {\n        return balances[tokenOwner];\n    }\n\n    /* added */\n\n    function getName() public view returns (string memory) {\n        return name_;\n    }\n\n    function getSymbol() public view returns (string memory) {\n        return symbol_;\n    }\n\n    function getAddress() public view returns (address) {\n        return msg.sender;\n    }\n\n\n    function transfer(address receiver, uint numTokens) public returns (bool) {\n        require(numTokens <= balances[msg.sender]);\n        balances[msg.sender] -= numTokens;\n        balances[receiver] += numTokens;\n        emit Transfer(msg.sender, receiver, numTokens);\n        return true;\n    }\n\n    function approve(address delegate, uint numTokens) public returns (bool) {\n        allowed[msg.sender][delegate] = numTokens;\n        emit Approval(msg.sender, delegate, numTokens);\n        return true;\n    }\n\n    function allowance(address owner, address delegate) public view returns (uint) {\n        return allowed[owner][delegate];\n    }\n\n    function transferFrom(address owner, address buyer, uint numTokens) public returns (bool) {\n        require(numTokens <= balances[owner]);\n        require(numTokens <= allowed[owner][msg.sender]);\n\n        balances[owner] -= numTokens;\n        allowed[owner][msg.sender] -= numTokens;\n        balances[buyer] += numTokens;\n        emit Transfer(owner, buyer, numTokens);\n        return true;\n    }\n\n    /* testing */\n\n    function toAsciiString(address x) internal pure returns (string memory) {\n    bytes memory s = new bytes(40);\n    for (uint i = 0; i < 20; i++) {\n        bytes1 b = bytes1(uint8(uint(uint160(x)) / (2**(8*(19 - i)))));\n        bytes1 hi = bytes1(uint8(b) / 16);\n        bytes1 lo = bytes1(uint8(b) - 16 * uint8(hi));\n        s[2*i] = char(hi);\n        s[2*i+1] = char(lo);            \n    }\n    return string(s);\n}\n\nfunction char(bytes1 b) internal pure returns (bytes1 c) {\n    if (uint8(b) < 10) return bytes1(uint8(b) + 0x30);\n    else return bytes1(uint8(b) + 0x57);\n}\n\nfunction returnAddress() public view returns(string memory){\n    return toAsciiString(msg.sender);\n}\n\n}",
  "sourcePath": "/home/dexray/Desktop/truffle_working/test2/contracts/demo.sol",
  "compiler": {
    "name": "solc",
    "version": "0.8.11+commit.d7f03943.Emscripten.clang"
  },
  "schemaVersion": "3.4.4",
  "updatedAt": "2022-01-11T04:46:45.129Z",
  "devdoc": {
    "kind": "dev",
    "methods": {},
    "version": 1
  },
  "userdoc": {
    "kind": "user",
    "methods": {},
    "version": 1
  }
}