{
  "contractName": "RYDERC20",
  "abi": [
    {
      "inputs": [
        {
          "internalType": "uint256",
          "name": "total",
          "type": "uint256"
        },
        {
          "internalType": "string",
          "name": "name",
          "type": "string"
        },
        {
          "internalType": "string",
          "name": "symbol",
          "type": "string"
        }
      ],
      "stateMutability": "nonpayable",
      "type": "constructor"
    },
    {
      "anonymous": false,
      "inputs": [
        {
          "indexed": true,
          "internalType": "address",
          "name": "tokenOwner",
          "type": "address"
        },
        {
          "indexed": true,
          "internalType": "address",
          "name": "spender",
          "type": "address"
        },
        {
          "indexed": false,
          "internalType": "uint256",
          "name": "tokens",
          "type": "uint256"
        }
      ],
      "name": "Approval",
      "type": "event"
    },
    {
      "anonymous": false,
      "inputs": [
        {
          "indexed": true,
          "internalType": "address",
          "name": "from",
          "type": "address"
        },
        {
          "indexed": true,
          "internalType": "address",
          "name": "to",
          "type": "address"
        },
        {
          "indexed": false,
          "internalType": "uint256",
          "name": "tokens",
          "type": "uint256"
        }
      ],
      "name": "Transfer",
      "type": "event"
    },
    {
      "inputs": [],
      "name": "decimals_",
      "outputs": [
        {
          "internalType": "uint256",
          "name": "",
          "type": "uint256"
        }
      ],
      "stateMutability": "view",
      "type": "function"
    },
    {
      "inputs": [],
      "name": "deployerAdd",
      "outputs": [
        {
          "internalType": "address",
          "name": "",
          "type": "address"
        }
      ],
      "stateMutability": "view",
      "type": "function"
    },
    {
      "inputs": [],
      "name": "name_",
      "outputs": [
        {
          "internalType": "string",
          "name": "",
          "type": "string"
        }
      ],
      "stateMutability": "view",
      "type": "function"
    },
    {
      "inputs": [],
      "name": "symbol_",
      "outputs": [
        {
          "internalType": "string",
          "name": "",
          "type": "string"
        }
      ],
      "stateMutability": "view",
      "type": "function"
    },
    {
      "inputs": [],
      "name": "totalSupply_",
      "outputs": [
        {
          "internalType": "uint256",
          "name": "",
          "type": "uint256"
        }
      ],
      "stateMutability": "view",
      "type": "function"
    },
    {
      "inputs": [],
      "name": "totalSupply",
      "outputs": [
        {
          "internalType": "uint256",
          "name": "",
          "type": "uint256"
        }
      ],
      "stateMutability": "view",
      "type": "function"
    },
    {
      "inputs": [
        {
          "internalType": "address",
          "name": "tokenOwner",
          "type": "address"
        }
      ],
      "name": "balanceOf",
      "outputs": [
        {
          "internalType": "uint256",
          "name": "",
          "type": "uint256"
        }
      ],
      "stateMutability": "view",
      "type": "function"
    },
    {
      "inputs": [],
      "name": "getAddress",
      "outputs": [
        {
          "internalType": "address",
          "name": "",
          "type": "address"
        }
      ],
      "stateMutability": "view",
      "type": "function"
    },
    {
      "inputs": [
        {
          "internalType": "address",
          "name": "receiver",
          "type": "address"
        },
        {
          "internalType": "uint256",
          "name": "numTokens",
          "type": "uint256"
        }
      ],
      "name": "transfer",
      "outputs": [
        {
          "internalType": "bool",
          "name": "",
          "type": "bool"
        }
      ],
      "stateMutability": "nonpayable",
      "type": "function"
    },
    {
      "inputs": [
        {
          "internalType": "address",
          "name": "delegate",
          "type": "address"
        },
        {
          "internalType": "uint256",
          "name": "numTokens",
          "type": "uint256"
        }
      ],
      "name": "approve",
      "outputs": [
        {
          "internalType": "bool",
          "name": "",
          "type": "bool"
        }
      ],
      "stateMutability": "nonpayable",
      "type": "function"
    },
    {
      "inputs": [
        {
          "internalType": "address",
          "name": "owner",
          "type": "address"
        },
        {
          "internalType": "address",
          "name": "delegate",
          "type": "address"
        }
      ],
      "name": "allowance",
      "outputs": [
        {
          "internalType": "uint256",
          "name": "",
          "type": "uint256"
        }
      ],
      "stateMutability": "view",
      "type": "function"
    },
    {
      "inputs": [
        {
          "internalType": "address",
          "name": "owner",
          "type": "address"
        },
        {
          "internalType": "address",
          "name": "buyer",
          "type": "address"
        },
        {
          "internalType": "uint256",
          "name": "numTokens",
          "type": "uint256"
        }
      ],
      "name": "transferFrom",
      "outputs": [
        {
          "internalType": "bool",
          "name": "",
          "type": "bool"
        }
      ],
      "stateMutability": "nonpayable",
      "type": "function"
    },
    {
      "inputs": [],
      "name": "returnOwnerAddress",
      "outputs": [
        {
          "internalType": "string",
          "name": "",
          "type": "string"
        }
      ],
      "stateMutability": "view",
      "type": "function"
    },
    {
      "inputs": [],
      "name": "returnSpenderAddress",
      "outputs": [
        {
          "internalType": "string",
          "name": "",
          "type": "string"
        }
      ],
      "stateMutability": "view",
      "type": "function"
    }
  ],
  "bytecode": "0x60806040523480156200001157600080fd5b50604051620018c8380380620018c8833981810160405281019062000037919062000387565b82600281905550816003908051906020019062000056929190620000ff565b5080600490805190602001906200006f929190620000ff565b506002546000803373ffffffffffffffffffffffffffffffffffffffff1673ffffffffffffffffffffffffffffffffffffffff1681526020019081526020016000208190555033600560006101000a81548173ffffffffffffffffffffffffffffffffffffffff021916908373ffffffffffffffffffffffffffffffffffffffff16021790555050505062000486565b8280546200010d9062000450565b90600052602060002090601f0160209004810192826200013157600085556200017d565b82601f106200014c57805160ff19168380011785556200017d565b828001600101855582156200017d579182015b828111156200017c5782518255916020019190600101906200015f565b5b5090506200018c919062000190565b5090565b5b80821115620001ab57600081600090555060010162000191565b5090565b6000604051905090565b600080fd5b600080fd5b6000819050919050565b620001d881620001c3565b8114620001e457600080fd5b50565b600081519050620001f881620001cd565b92915050565b600080fd5b600080fd5b6000601f19601f8301169050919050565b7f4e487b7100000000000000000000000000000000000000000000000000000000600052604160045260246000fd5b620002538262000208565b810181811067ffffffffffffffff8211171562000275576200027462000219565b5b80604052505050565b60006200028a620001af565b905062000298828262000248565b919050565b600067ffffffffffffffff821115620002bb57620002ba62000219565b5b620002c68262000208565b9050602081019050919050565b60005b83811015620002f3578082015181840152602081019050620002d6565b8381111562000303576000848401525b50505050565b6000620003206200031a846200029d565b6200027e565b9050828152602081018484840111156200033f576200033e62000203565b5b6200034c848285620002d3565b509392505050565b600082601f8301126200036c576200036b620001fe565b5b81516200037e84826020860162000309565b91505092915050565b600080600060608486031215620003a357620003a2620001b9565b5b6000620003b386828701620001e7565b935050602084015167ffffffffffffffff811115620003d757620003d6620001be565b5b620003e58682870162000354565b925050604084015167ffffffffffffffff811115620004095762000408620001be565b5b620004178682870162000354565b9150509250925092565b7f4e487b7100000000000000000000000000000000000000000000000000000000600052602260045260246000fd5b600060028204905060018216806200046957607f821691505b6020821081141562000480576200047f62000421565b5b50919050565b61143280620004966000396000f3fe608060405234801561001057600080fd5b50600436106100ea5760003560e01c806391cbced01161008c578063af17dea611610066578063af17dea614610263578063dd62ed3e14610281578063e2b9e186146102b1578063f785ef72146102cf576100ea565b806391cbced0146101f7578063a36a36d514610215578063a9059cbb14610233576100ea565b8063324536eb116100c8578063324536eb1461016d57806338cc48311461018b57806342c5b835146101a957806370a08231146101c7576100ea565b8063095ea7b3146100ef57806318160ddd1461011f57806323b872dd1461013d575b600080fd5b61010960048036038101906101049190610cda565b6102ed565b6040516101169190610d35565b60405180910390f35b6101276103df565b6040516101349190610d5f565b60405180910390f35b61015760048036038101906101529190610d7a565b6103e9565b6040516101649190610d35565b60405180910390f35b61017561066c565b6040516101829190610d5f565b60405180910390f35b610193610672565b6040516101a09190610ddc565b60405180910390f35b6101b161067a565b6040516101be9190610ddc565b60405180910390f35b6101e160048036038101906101dc9190610df7565b6106a0565b6040516101ee9190610d5f565b60405180910390f35b6101ff6106e8565b60405161020c9190610ebd565b60405180910390f35b61021d6106f8565b60405161022a9190610ebd565b60405180910390f35b61024d60048036038101906102489190610cda565b61072a565b60405161025a9190610d35565b60405180910390f35b61026b610890565b6040516102789190610ebd565b60405180910390f35b61029b60048036038101906102969190610edf565b61091e565b6040516102a89190610d5f565b60405180910390f35b6102b96109a5565b6040516102c69190610ebd565b60405180910390f35b6102d7610a33565b6040516102e49190610d5f565b60405180910390f35b600081600160003373ffffffffffffffffffffffffffffffffffffffff1673ffffffffffffffffffffffffffffffffffffffff16815260200190815260200160002060008573ffffffffffffffffffffffffffffffffffffffff1673ffffffffffffffffffffffffffffffffffffffff168152602001908152602001600020819055508273ffffffffffffffffffffffffffffffffffffffff163373ffffffffffffffffffffffffffffffffffffffff167f8c5be1e5ebec7d5bd14f71427d1e84f3dd0314c0f7b2291e5b200ac8c7c3b925846040516103cd9190610d5f565b60405180910390a36001905092915050565b6000600254905090565b60008060008573ffffffffffffffffffffffffffffffffffffffff1673ffffffffffffffffffffffffffffffffffffffff1681526020019081526020016000205482111561043657600080fd5b600160008573ffffffffffffffffffffffffffffffffffffffff1673ffffffffffffffffffffffffffffffffffffffff16815260200190815260200160002060003373ffffffffffffffffffffffffffffffffffffffff1673ffffffffffffffffffffffffffffffffffffffff168152602001908152602001600020548211156104bf57600080fd5b816000808673ffffffffffffffffffffffffffffffffffffffff1673ffffffffffffffffffffffffffffffffffffffff168152602001908152602001600020600082825461050d9190610f4e565b9250508190555081600160008673ffffffffffffffffffffffffffffffffffffffff1673ffffffffffffffffffffffffffffffffffffffff16815260200190815260200160002060003373ffffffffffffffffffffffffffffffffffffffff1673ffffffffffffffffffffffffffffffffffffffff16815260200190815260200160002060008282546105a09190610f4e565b92505081905550816000808573ffffffffffffffffffffffffffffffffffffffff1673ffffffffffffffffffffffffffffffffffffffff16815260200190815260200160002060008282546105f59190610f82565b925050819055508273ffffffffffffffffffffffffffffffffffffffff168473ffffffffffffffffffffffffffffffffffffffff167fddf252ad1be2c89b69c2b068fc378daa952ba7f163c4a11628f55a4df523b3ef846040516106599190610d5f565b60405180910390a3600190509392505050565b60025481565b600033905090565b600560009054906101000a900473ffffffffffffffffffffffffffffffffffffffff1681565b60008060008373ffffffffffffffffffffffffffffffffffffffff1673ffffffffffffffffffffffffffffffffffffffff168152602001908152602001600020549050919050565b60606106f333610a38565b905090565b6060610725600560009054906101000a900473ffffffffffffffffffffffffffffffffffffffff16610a38565b905090565b60008060003373ffffffffffffffffffffffffffffffffffffffff1673ffffffffffffffffffffffffffffffffffffffff1681526020019081526020016000205482111561077757600080fd5b816000803373ffffffffffffffffffffffffffffffffffffffff1673ffffffffffffffffffffffffffffffffffffffff16815260200190815260200160002060008282546107c59190610f4e565b92505081905550816000808573ffffffffffffffffffffffffffffffffffffffff1673ffffffffffffffffffffffffffffffffffffffff168152602001908152602001600020600082825461081a9190610f82565b925050819055508273ffffffffffffffffffffffffffffffffffffffff163373ffffffffffffffffffffffffffffffffffffffff167fddf252ad1be2c89b69c2b068fc378daa952ba7f163c4a11628f55a4df523b3ef8460405161087e9190610d5f565b60405180910390a36001905092915050565b6004805461089d90611007565b80601f01602080910402602001604051908101604052809291908181526020018280546108c990611007565b80156109165780601f106108eb57610100808354040283529160200191610916565b820191906000526020600020905b8154815290600101906020018083116108f957829003601f168201915b505050505081565b6000600160008473ffffffffffffffffffffffffffffffffffffffff1673ffffffffffffffffffffffffffffffffffffffff16815260200190815260200160002060008373ffffffffffffffffffffffffffffffffffffffff1673ffffffffffffffffffffffffffffffffffffffff16815260200190815260200160002054905092915050565b600380546109b290611007565b80601f01602080910402602001604051908101604052809291908181526020018280546109de90611007565b8015610a2b5780601f10610a0057610100808354040283529160200191610a2b565b820191906000526020600020905b815481529060010190602001808311610a0e57829003601f168201915b505050505081565b601281565b60606000602867ffffffffffffffff811115610a5757610a56611039565b5b6040519080825280601f01601f191660200182016040528015610a895781602001600182028036833780820191505090505b50905060005b6014811015610bf1576000816013610aa79190610f4e565b6008610ab39190611068565b6002610abf91906111f5565b8573ffffffffffffffffffffffffffffffffffffffff16610ae0919061126f565b60f81b9050600060108260f81c610af791906112ad565b60f81b905060008160f81c6010610b0e91906112de565b8360f81c610b1c9190611319565b60f81b9050610b2a82610bfb565b85856002610b389190611068565b81518110610b4957610b4861134d565b5b60200101907effffffffffffffffffffffffffffffffffffffffffffffffffffffffffffff1916908160001a905350610b8181610bfb565b856001866002610b919190611068565b610b9b9190610f82565b81518110610bac57610bab61134d565b5b60200101907effffffffffffffffffffffffffffffffffffffffffffffffffffffffffffff1916908160001a9053505050508080610be99061137c565b915050610a8f565b5080915050919050565b6000600a8260f81c60ff161015610c265760308260f81c610c1c91906113c5565b60f81b9050610c3c565b60578260f81c610c3691906113c5565b60f81b90505b919050565b600080fd5b600073ffffffffffffffffffffffffffffffffffffffff82169050919050565b6000610c7182610c46565b9050919050565b610c8181610c66565b8114610c8c57600080fd5b50565b600081359050610c9e81610c78565b92915050565b6000819050919050565b610cb781610ca4565b8114610cc257600080fd5b50565b600081359050610cd481610cae565b92915050565b60008060408385031215610cf157610cf0610c41565b5b6000610cff85828601610c8f565b9250506020610d1085828601610cc5565b9150509250929050565b60008115159050919050565b610d2f81610d1a565b82525050565b6000602082019050610d4a6000830184610d26565b92915050565b610d5981610ca4565b82525050565b6000602082019050610d746000830184610d50565b92915050565b600080600060608486031215610d9357610d92610c41565b5b6000610da186828701610c8f565b9350506020610db286828701610c8f565b9250506040610dc386828701610cc5565b9150509250925092565b610dd681610c66565b82525050565b6000602082019050610df16000830184610dcd565b92915050565b600060208284031215610e0d57610e0c610c41565b5b6000610e1b84828501610c8f565b91505092915050565b600081519050919050565b600082825260208201905092915050565b60005b83811015610e5e578082015181840152602081019050610e43565b83811115610e6d576000848401525b50505050565b6000601f19601f8301169050919050565b6000610e8f82610e24565b610e998185610e2f565b9350610ea9818560208601610e40565b610eb281610e73565b840191505092915050565b60006020820190508181036000830152610ed78184610e84565b905092915050565b60008060408385031215610ef657610ef5610c41565b5b6000610f0485828601610c8f565b9250506020610f1585828601610c8f565b9150509250929050565b7f4e487b7100000000000000000000000000000000000000000000000000000000600052601160045260246000fd5b6000610f5982610ca4565b9150610f6483610ca4565b925082821015610f7757610f76610f1f565b5b828203905092915050565b6000610f8d82610ca4565b9150610f9883610ca4565b9250827fffffffffffffffffffffffffffffffffffffffffffffffffffffffffffffffff03821115610fcd57610fcc610f1f565b5b828201905092915050565b7f4e487b7100000000000000000000000000000000000000000000000000000000600052602260045260246000fd5b6000600282049050600182168061101f57607f821691505b6020821081141561103357611032610fd8565b5b50919050565b7f4e487b7100000000000000000000000000000000000000000000000000000000600052604160045260246000fd5b600061107382610ca4565b915061107e83610ca4565b9250817fffffffffffffffffffffffffffffffffffffffffffffffffffffffffffffffff04831182151516156110b7576110b6610f1f565b5b828202905092915050565b60008160011c9050919050565b6000808291508390505b6001851115611119578086048111156110f5576110f4610f1f565b5b60018516156111045780820291505b8081029050611112856110c2565b94506110d9565b94509492505050565b60008261113257600190506111ee565b8161114057600090506111ee565b816001811461115657600281146111605761118f565b60019150506111ee565b60ff84111561117257611171610f1f565b5b8360020a91508482111561118957611188610f1f565b5b506111ee565b5060208310610133831016604e8410600b84101617156111c45782820a9050838111156111bf576111be610f1f565b5b6111ee565b6111d184848460016110cf565b925090508184048111156111e8576111e7610f1f565b5b81810290505b9392505050565b600061120082610ca4565b915061120b83610ca4565b92506112387fffffffffffffffffffffffffffffffffffffffffffffffffffffffffffffffff8484611122565b905092915050565b7f4e487b7100000000000000000000000000000000000000000000000000000000600052601260045260246000fd5b600061127a82610ca4565b915061128583610ca4565b92508261129557611294611240565b5b828204905092915050565b600060ff82169050919050565b60006112b8826112a0565b91506112c3836112a0565b9250826112d3576112d2611240565b5b828204905092915050565b60006112e9826112a0565b91506112f4836112a0565b92508160ff048311821515161561130e5761130d610f1f565b5b828202905092915050565b6000611324826112a0565b915061132f836112a0565b92508282101561134257611341610f1f565b5b828203905092915050565b7f4e487b7100000000000000000000000000000000000000000000000000000000600052603260045260246000fd5b600061138782610ca4565b91507fffffffffffffffffffffffffffffffffffffffffffffffffffffffffffffffff8214156113ba576113b9610f1f565b5b600182019050919050565b60006113d0826112a0565b91506113db836112a0565b92508260ff038211156113f1576113f0610f1f565b5b82820190509291505056fea2646970667358221220c9ba36b692d7a0807fde4ada97ef00c51467da3c420201383ed5bf1dbc1f933964736f6c634300080b0033",
  "immutableReferences": {},
  "source": "// SPDX-License-Identifier: GPL-3.0\npragma solidity >=0.7.0 <0.9.0;\n\ncontract RYDERC20 {\n\n    event Transfer(address indexed from, address indexed to, uint tokens);\n    event Approval(address indexed tokenOwner, address indexed spender, uint tokens);\n\n    mapping(address => uint256) balances;\n\n    mapping(address => mapping (address => uint256)) allowed;\n\n    uint256 public totalSupply_;\n    string public name_;\n    string public symbol_;\n    uint256 public constant decimals_ = 18;\n    address public deployerAdd;\n\n\n    constructor(uint256 total,string memory name, string memory symbol) {\n      totalSupply_ = total;\n      name_ = name;\n      symbol_ = symbol;\n      balances[msg.sender] = totalSupply_;\n      deployerAdd = msg.sender;\n    }\n\n    function totalSupply() public view returns (uint256) {\n      return totalSupply_;\n    }\n\n    function balanceOf(address tokenOwner) public view returns (uint) {\n        return balances[tokenOwner];\n    }\n\n    function getAddress() public view returns (address) {\n        return msg.sender;\n    }\n\n\n    function transfer(address receiver, uint numTokens) public returns (bool) {\n        require(numTokens <= balances[msg.sender]);\n        balances[msg.sender] -= numTokens;\n        balances[receiver] += numTokens;\n        emit Transfer(msg.sender, receiver, numTokens);\n        return true;\n    }\n\n    function approve(address delegate, uint numTokens) public returns (bool) {\n        allowed[msg.sender][delegate] = numTokens;\n        emit Approval(msg.sender, delegate, numTokens);\n        return true;\n    }\n\n    function allowance(address owner, address delegate) public view returns (uint) {\n        return allowed[owner][delegate];\n    }\n\n    function transferFrom(address owner, address buyer, uint numTokens) public returns (bool) {\n        require(numTokens <= balances[owner]);\n        require(numTokens <= allowed[owner][msg.sender]);\n\n        balances[owner] -= numTokens;\n        allowed[owner][msg.sender] -= numTokens;\n        balances[buyer] += numTokens;\n        emit Transfer(owner, buyer, numTokens);\n        return true;\n    }\n\n    /* testing */\n\n    function toAsciiString(address x) internal pure returns (string memory) {\n    bytes memory s = new bytes(40);\n    for (uint i = 0; i < 20; i++) {\n        bytes1 b = bytes1(uint8(uint(uint160(x)) / (2**(8*(19 - i)))));\n        bytes1 hi = bytes1(uint8(b) / 16);\n        bytes1 lo = bytes1(uint8(b) - 16 * uint8(hi));\n        s[2*i] = char(hi);\n        s[2*i+1] = char(lo);            \n    }\n    return string(s);\n}\n\nfunction char(bytes1 b) internal pure returns (bytes1 c) {\n    if (uint8(b) < 10) return bytes1(uint8(b) + 0x30);\n    else return bytes1(uint8(b) + 0x57);\n}\n\nfunction returnOwnerAddress() public view returns(string memory){\n    return toAsciiString(deployerAdd);\n}\n\nfunction returnSpenderAddress() public view returns(string memory){\n    return toAsciiString(msg.sender);\n}\n\n}",
  "sourcePath": "/home/dexray/Desktop/truffle_working/RYDERC20/contracts/RYDERC20.sol",
  "compiler": {
    "name": "solc",
    "version": "0.8.11+commit.d7f03943.Emscripten.clang"
  },
  "schemaVersion": "3.4.4",
  "updatedAt": "2022-01-11T08:12:57.485Z",
  "devdoc": {
    "kind": "dev",
    "methods": {},
    "version": 1
  },
  "userdoc": {
    "kind": "user",
    "methods": {},
    "version": 1
  }
}